:0420000063EF3FF05B
:107EB400D6CF05F0D750036E0550016E03C002F013
:107EC4001200136A126A116A106A0F6A0E6A0001BC
:107ED400A5EF3FF0000ED56E000ED76E000ED66EE5
:107EE400000E0E6E000E0F6E000E106E000E116E60
:107EF400000E136E000E126E840ED56E12005AEC34
:107F04003FF001C008F002C009F093EF3FF0010E0A
:107F14000E26000E0F2210221122770E1226010EB9
:107F240013221250085C066E13500958076E770E20
:107F3400065C010E0758D8B0A2EF3FF0A4EF3FF063
:107F440089EF3FF012006CEC3FF08A8E8A8C8B9C98
:107F540081EC3FF00EC00AF00FC00BF010C00CF023
:107F640011C00DF00A0EBCEF3FF0D8900D320C3268
:107F74000B320A32E82EB7EF3FF00AA0C4EF3FF00D
:107F8400C7EF3FF0938EC8EF3FF0939E0EC00AF008
:107F94000FC00BF010C00CF011C00DF00BC00AF0B4
:107FA4000CC00BF00DC00CF00D6A0AA0DCEF3FF022
:107FB400DFEF3FF0938CE0EF3FF0939C0EC00AF0AC
:107FC4000FC00BF010C00CF011C00DF0080EF0EF54
:107FD4003FF0D8900D320C320B320A32E82EEBEF20
:107FE4003FF00AA0F8EF3FF0FBEF3FF0948CFCEF7A
:0C7FF4003FF0949CAAEF3FF000EF10F06B
:020000040020DA
:08000000FFFFFFFFFFFFFFFF00
:020000040030CA
:0E00000000255F3FFFD385FF0FC00FE00F40CC
:00000001FF
